{
  "contractName": "lottery",
  "abi": [
    {
      "inputs": [],
      "stateMutability": "nonpayable",
      "type": "constructor"
    },
    {
      "inputs": [
        {
          "internalType": "uint256",
          "name": "",
          "type": "uint256"
        }
      ],
      "name": "players",
      "outputs": [
        {
          "internalType": "address payable",
          "name": "",
          "type": "address"
        }
      ],
      "stateMutability": "view",
      "type": "function",
      "constant": true
    },
    {
      "inputs": [],
      "name": "winner",
      "outputs": [
        {
          "internalType": "address payable",
          "name": "",
          "type": "address"
        }
      ],
      "stateMutability": "view",
      "type": "function",
      "constant": true
    },
    {
      "stateMutability": "payable",
      "type": "receive",
      "payable": true
    },
    {
      "inputs": [],
      "name": "getBalance",
      "outputs": [
        {
          "internalType": "uint256",
          "name": "",
          "type": "uint256"
        }
      ],
      "stateMutability": "view",
      "type": "function",
      "constant": true
    },
    {
      "inputs": [],
      "name": "pickWinner",
      "outputs": [],
      "stateMutability": "nonpayable",
      "type": "function"
    },
    {
      "inputs": [],
      "name": "allPlayers",
      "outputs": [
        {
          "internalType": "address payable[]",
          "name": "",
          "type": "address[]"
        }
      ],
      "stateMutability": "view",
      "type": "function",
      "constant": true
    }
  ],
  "bytecode": "0x608060405234801561001057600080fd5b5033600160006101000a81548173ffffffffffffffffffffffffffffffffffffffff021916908373ffffffffffffffffffffffffffffffffffffffff160217905550610b87806100616000396000f3fe60806040526004361061004e5760003560e01c806312065fe0146101065780635d495aea14610131578063b0ec809414610148578063dfbf53ae14610173578063f71d96cb1461019e57610101565b366101015766038d7ea4c68000341461009c576040517f08c379a000000000000000000000000000000000000000000000000000000000815260040161009390610714565b60405180910390fd5b6000339080600181540180825580915050600190039060005260206000200160009091909190916101000a81548173ffffffffffffffffffffffffffffffffffffffff021916908373ffffffffffffffffffffffffffffffffffffffff160217905550005b600080fd5b34801561011257600080fd5b5061011b6101db565b604051610128919061074d565b60405180910390f35b34801561013d57600080fd5b50610146610273565b005b34801561015457600080fd5b5061015d6104bf565b60405161016a9190610858565b60405180910390f35b34801561017f57600080fd5b5061018861054d565b6040516101959190610889565b60405180910390f35b3480156101aa57600080fd5b506101c560048036038101906101c091906108d5565b610573565b6040516101d29190610889565b60405180910390f35b6000600160009054906101000a900473ffffffffffffffffffffffffffffffffffffffff1673ffffffffffffffffffffffffffffffffffffffff163373ffffffffffffffffffffffffffffffffffffffff161461026d576040517f08c379a00000000000000000000000000000000000000000000000000000000081526004016102649061094e565b60405180910390fd5b47905090565b600160009054906101000a900473ffffffffffffffffffffffffffffffffffffffff1673ffffffffffffffffffffffffffffffffffffffff163373ffffffffffffffffffffffffffffffffffffffff1614610303576040517f08c379a00000000000000000000000000000000000000000000000000000000081526004016102fa906109ba565b60405180910390fd5b6003600080549050101561034c576040517f08c379a000000000000000000000000000000000000000000000000000000000815260040161034390610a26565b60405180910390fd5b60006103566105b2565b9050600080805490508261036a9190610a75565b9050600081815481106103805761037f610aa6565b5b9060005260206000200160009054906101000a900473ffffffffffffffffffffffffffffffffffffffff16600260006101000a81548173ffffffffffffffffffffffffffffffffffffffff021916908373ffffffffffffffffffffffffffffffffffffffff160217905550600260009054906101000a900473ffffffffffffffffffffffffffffffffffffffff1673ffffffffffffffffffffffffffffffffffffffff166108fc61042f6101db565b9081150290604051600060405180830381858888f1935050505015801561045a573d6000803e3d6000fd5b50600067ffffffffffffffff81111561047657610475610ad5565b5b6040519080825280602002602001820160405280156104a45781602001602082028036833780820191505090505b50600090805190602001906104ba9291906105ea565b505050565b6060600080548060200260200160405190810160405280929190818152602001828054801561054357602002820191906000526020600020905b8160009054906101000a900473ffffffffffffffffffffffffffffffffffffffff1673ffffffffffffffffffffffffffffffffffffffff16815260200190600101908083116104f9575b5050505050905090565b600260009054906101000a900473ffffffffffffffffffffffffffffffffffffffff1681565b6000818154811061058357600080fd5b906000526020600020016000915054906101000a900473ffffffffffffffffffffffffffffffffffffffff1681565b6000426000805490506040516020016105cc929190610b25565b6040516020818303038152906040528051906020012060001c905090565b828054828255906000526020600020908101928215610663579160200282015b828111156106625782518260006101000a81548173ffffffffffffffffffffffffffffffffffffffff021916908373ffffffffffffffffffffffffffffffffffffffff1602179055509160200191906001019061060a565b5b5090506106709190610674565b5090565b5b8082111561068d576000816000905550600101610675565b5090565b600082825260208201905092915050565b7f506c656173652050726f766964652061746c6561737420302e3030312045746860008201527f6572000000000000000000000000000000000000000000000000000000000000602082015250565b60006106fe602283610691565b9150610709826106a2565b604082019050919050565b6000602082019050818103600083015261072d816106f1565b9050919050565b6000819050919050565b61074781610734565b82525050565b6000602082019050610762600083018461073e565b92915050565b600081519050919050565b600082825260208201905092915050565b6000819050602082019050919050565b600073ffffffffffffffffffffffffffffffffffffffff82169050919050565b60006107bf82610794565b9050919050565b6107cf816107b4565b82525050565b60006107e183836107c6565b60208301905092915050565b6000602082019050919050565b600061080582610768565b61080f8185610773565b935061081a83610784565b8060005b8381101561084b57815161083288826107d5565b975061083d836107ed565b92505060018101905061081e565b5085935050505092915050565b6000602082019050818103600083015261087281846107fa565b905092915050565b610883816107b4565b82525050565b600060208201905061089e600083018461087a565b92915050565b600080fd5b6108b281610734565b81146108bd57600080fd5b50565b6000813590506108cf816108a9565b92915050565b6000602082840312156108eb576108ea6108a4565b5b60006108f9848285016108c0565b91505092915050565b7f536f7272792c596f752043616e7420436865636b207468652042616c616e6365600082015250565b6000610938602083610691565b915061094382610902565b602082019050919050565b600060208201905081810360008301526109678161092b565b9050919050565b7f6f6e6c79204f776e65722063616e205069636b2057696e6e6572000000000000600082015250565b60006109a4601a83610691565b91506109af8261096e565b602082019050919050565b600060208201905081810360008301526109d381610997565b9050919050565b7f4e6f74206861766520456e6f756768205061727469636950616e747300000000600082015250565b6000610a10601c83610691565b9150610a1b826109da565b602082019050919050565b60006020820190508181036000830152610a3f81610a03565b9050919050565b7f4e487b7100000000000000000000000000000000000000000000000000000000600052601260045260246000fd5b6000610a8082610734565b9150610a8b83610734565b925082610a9b57610a9a610a46565b5b828206905092915050565b7f4e487b7100000000000000000000000000000000000000000000000000000000600052603260045260246000fd5b7f4e487b7100000000000000000000000000000000000000000000000000000000600052604160045260246000fd5b6000819050919050565b610b1f610b1a82610734565b610b04565b82525050565b6000610b318285610b0e565b602082019150610b418284610b0e565b602082019150819050939250505056fea2646970667358221220eddf2a34a93d241dde09371cb5db2f9380c06386c340592c145f735b4a3f7bac64736f6c634300080b0033",
  "immutableReferences": {},
  "source": "//SPDX-Licensce-Identifier : GPL-3.0\r\npragma solidity >= 0.5.0 < 0.9.0;\r\n\r\ncontract lottery\r\n{\r\n    address payable[]public players;\r\n    address owner;\r\n    address payable public winner;\r\n    constructor()\r\n    {\r\n        owner=msg.sender;\r\n    }\r\n\r\n    receive()external payable\r\n    {\r\n        require(msg.value==0.001 ether,\"Please Provide atleast 0.001 Ether\");\r\n        players.push(payable(msg.sender));\r\n    }\r\n\r\n    function getBalance() public view returns(uint)\r\n    { \r\n         require(msg.sender==owner,\"Sorry,You Cant Check the Balance\");\r\n        return address(this).balance;\r\n    }\r\n\r\n    function random()internal view returns(uint)\r\n    {\r\n        return uint(keccak256(abi.encodePacked(block.timestamp,players.length)));\r\n    }\r\n  \r\n    function pickWinner()public \r\n    {\r\n        require(msg.sender==owner,\"only Owner can Pick Winner\");\r\n        require(players.length>=3,\"Not have Enough ParticiPants\");\r\n        uint r= random();\r\n        uint index=r % players.length;\r\n       winner=players[index];\r\n       winner.transfer(getBalance());\r\n       players=new address payable[](0);\r\n    }\r\n\r\n    function allPlayers()view public returns(address payable[] memory)\r\n     {\r\n         return players;\r\n     }\r\n}\r\n\r\n",
  "sourcePath": "C:\\Users\\hydrarichie\\Desktop\\Lottery Dapp\\web3lab\\contracts\\Lottery.sol",
  "compiler": {
    "name": "solc",
    "version": "0.8.11+commit.d7f03943.Emscripten.clang"
  },
  "schemaVersion": "3.4.10",
  "updatedAt": "2022-09-19T21:52:07.502Z",
  "networkType": "ethereum",
  "devdoc": {
    "kind": "dev",
    "methods": {},
    "version": 1
  },
  "userdoc": {
    "kind": "user",
    "methods": {},
    "version": 1
  }
}